A100000000001514783794020200220143300&OF1.31&                                                  
B10000000000251478379400000000000000200000000                           18000088305                   0000                                                  20200105202001050000000000400000000000000000002USD+00000000005407+00000000001554                                       20200105John Doe                          
B10000000000351478379400000000000000300000000                           18000088305                   0000                                               VAT20200105202001050000000000225320000000000000002USD+00000000000919+00000000000264                                       20200105John Doe                          
B10000000000451478379400000000000000100000000                                 18600                  79500                                                  20200122202001220000000000222300000000000000002USD+00000003787666+00000001096000                                       20200122John Doe                          
B10000000000551478379400000000000000100000000                                 19600                  79500                                                  20200122202001220000000000222300000000000000002USD+00000000034559+00000000010000                                       20200122John Doe                          
B10000000000651478379400000000000000100000000                                 20600                  79500                                                  20200122202001220000000000222300000000000000002USD+00000000051839+00000000015000                                       20200122John Doe                          
B10000000000751478379400000000000000200000000                               1313710                1313700                                                  20200130202001300000000000123200000000000000002ILS+00000000085470+00000000085470                                       20200130John Doe                          
B10000000000851478379400000000000000100000000                                 16610                   3000                                                  20200122202001220000000000123300000000000000001USD+00000000003456+00000000001000                                       20200122John Doe                          
B10000000000951478379400000000000000300000000                              36546700                   0000                                                  20200130202001300000000000119990000000000000001ILS+00000000065399+00000000065399                                       20200130John Doe                          
B10000000001051478379400000000000000200000000                                148710                   0000                                                  20200101202001010000000000225510000000000000002ILS+00000000004974+00000000004974                                       20191204John Doe                          
B10000000001151478379400000000000000200000000                                154710                   0000                                                  20200101202001010000000000225510000000000000002ILS+00000000001170+00000000001170                                       20200101John Doe                          
B10000000001251478379400000000000000200000000                                155710                   0000                                                  20200101202001010000000000225510000000000000002ILS+00000000001170+00000000001170                                       20200101John Doe                          
B10000000001351478379400000000000000200000000                                157710                   0000                                                  20200128202001280000000000225510000000000000002ILS+00000000009360+00000000009360                                       20200128John Doe                          
B10000000001451478379400000000000000200000000                                158710                   0000                                                  20200130202001300000000000225510000000000000002USD+00000000040434+00000000011718                                       20200130John Doe                          
B10000000001551478379400000000000000300000000                              88888700                   0000                                               VAT20200101202001010000000000125330000000000000001ILS+00000000001700+00000000001700                                       20200101John Doe                          
B10000000001651478379400000000000000300000000                          999999999700                   0000                                               VAT20200101202001010000000000125330000000000000001ILS+00000000001700+00000000001700                                       20200101John Doe                          
B10000000001751478379400000000000000300000000                                 23000                   0000                                               VAT20200114202001140000000000125330000000000000001ILS+00000000017000+00000000017000                                       20200114John Doe                          
B10000000001851478379400000000000000300000000                              33336700                  81500                                               VAT20200123202001230000000000125330000000000000001ILS+00000000004359+00000000004359                                       20200126John Doe                          
B10000000001951478379400000000000000300000000                             577687700                   0000                                               VAT20200103202001030000000000125330000000000000001ILS+00000000011322+00000000011322                                       20200128John Doe                          
B10000000002051478379400000000000000300000000                             123056700                   0000                                               VAT20200130202001300000000000125330000000000000001ILS+00000000000587+00000000000587                                       20200130John Doe                          
B10000000002151478379400000000000000300000000                              30546700                   0000                                               VAT20200130202001300000000000125330000000000000001USD+00000000058753+00000000017027                                       20200130John Doe                          
B10000000002251478379400000000000000300000000                               1313710                1313700                                               VAT20200130202001300000000000125330000000000000002ILS+00000000014530+00000000014530                                       20200130John Doe                          
B10000000002351478379400000000000000400000000                              36546700                   0000                                               VAT20200130202001300000000000125330000000000000001ILS+00000000028232+00000000028232                                       20200130John Doe                          
B10000000002451478379400000000000000300000000                              36745700                   0000                                               VAT20200130202001300000000000125330000000000000001ILS+00000076562090+00000076562090                                       20200130John Doe                          
B10000000002551478379400000000000000300000000                              35465700                   0000                                               VAT20200131202001310000000000125330000000000000001ILS+00000000002295+00000000002295                                       20200202John Doe                          
B10000000002651478379401800000820000100000000                                978700                   0000                                             3000320200101202001010000000000220100000000000000002ILS+00000000117000+00000000117000                                       20191204John Doe                          
B10000000002751478379400000000000000100000000                             894544700                   0000                                             3000320200101202001010000000000220100000000000000002ILS+00000000117000+00000000117000                                       20191204John Doe                          
B10000000002851478379400000000000000100000000                               8888700                   0000                                             3000320200101202001010000000000220100000000000000002ILS+00000000117000+00000000117000                                       20191204John Doe                          
B10000000002951478379400000000000000100000000                               8888710                8888700                                             3000320200101202001010000000000220100000000000000001ILS+00000000011700+00000000011700                                       20191204John Doe                          
B10000000003051478379400000000000000200000000                              20244410                8888700                                                  20200101202001010000000000220100000000000000001ILS+00000000044770+00000000044770                                       20191204John Doe                          
B10000000003151478379400000000000000100000000                                148710                8888700             Withholding Tax Amount for Bill #888820200101202001010000000000220100000000000000001ILS+00000000004974+00000000004974                                       20191204John Doe                          
B10000000003251478379400000000000000100000000                              88888700                   0000                                             3000320200101202001010000000000220100000000000000002ILS+00000000011700+00000000011700                                       20200101John Doe                          
B10000000003351478379400000000000000200000000                                 32410               88888700                                                  20200101202001010000000000220100000000000000001ILS+00000000010530+00000000010530                                       20200101John Doe                          
B10000000003451478379400000000000000100000000                                154710               88888700            Withholding Tax Amount for Bill #8888820200101202001010000000000220100000000000000001ILS+00000000001170+00000000001170                                       20200101John Doe                          
B10000000003551478379400000000000000100000000                          999999999700                   0000                                             3000320200101202001010000000000220100000000000000002ILS+00000000011700+00000000011700                                       20200101John Doe                          
B10000000003651478379400000000000000100000000                                155710           999999999700        Withholding Tax Amount for Bill #99999999920200101202001010000000000220100000000000000001ILS+00000000001170+00000000001170                                       20200101John Doe                          
B10000000003751478379400000000000000200000000                              20246410                   3700                                                  20200126202001260000000000220100000000000000001USD+00000000202047+00000000058500                                       20200126John Doe                          
B10000000003851478379400000000000000200000000                                352000                   0000                                                  20200126202001260000000000220100000000000000002USD+00000000202047+00000000058500                                       20200126John Doe                          
B10000000003951478379400000000000000200000000                                  1410                   3700                                                  20200126202001260000000000220100000000000000001USD+00000000202047+00000000058500                                       20200126John Doe                          
B10000000004051478379400000000000000200000000                                353000                   0000                                                  20200126202001260000000000220100000000000000002USD+00000000202047+00000000058500                                       20200126John Doe                          
B10000000004151478379400000000000000100000000                              33336700                  81500                                                  20200123202001230000000000220100000000000000002ILS+00000000030000+00000000030000                                       20200126John Doe                          
B10000000004251478379400000000000000200000000                                 12410               33336700                                                  20200126202001260000000000220100000000000000001ILS+00000000030000+00000000030000                                       20200126John Doe                          
B10000000004351478379400000000000000100000000                             577687700                   0000                                            10101020200103202001030000000000220100000000000000002ILS+00000000077922+00000000077922                                       20200128John Doe                          
B10000000004451478379400000000000000200000000                                 13410              894544700                                                  20200128202001280000000000220100000000000000001ILS+00000000084240+00000000084240                                       20200128John Doe                          
B10000000004551478379400000000000000100000000                                157710              894544700           Withholding Tax Amount for Bill #89454420200128202001280000000000220100000000000000001ILS+00000000009360+00000000009360                                       20200128John Doe                          
B10000000004651478379400000000000000300000000                                355000                   0000                                                  20200128202001280000000000220100000000000000001ILS+00000000010000+00000000010000                                       20200128John Doe                          
B10000000004751478379400000000000000100000000                             123056700                   0000                                            10101020200130202001300000000000220100000000000000002ILS+00000000004043+00000000004043                                       20200130John Doe                          
B10000000004851478379400000000000000100000000                              30546700                   0000                                             9944720200130202001300000000000220100000000000000002USD+00000000404351+00000000117183                                       20200130John Doe                          
B10000000004951478379400000000000000100000000                                158710               30546700            Withholding Tax Amount for Bill #3054620200130202001300000000000220100000000000000001USD+00000000040434+00000000011718                                       20200130John Doe                          
B10000000005051478379400000000000000200000000                                 36410              123056700                                                  20200130202001300000000000220100000000000000001ILS+00000000004043+00000000004043                                       20200130John Doe                          
B10000000005151478379400000000000000200000000                                 37410                1313700                                                  20200130202001300000000000220100000000000000001ILS+00000000100000+00000000100000                                       20200130John Doe                          
B10000000005251478379400000000000000100000000                               1313710                1313700                                            10101020200130202001300000000000220100000000000000001ILS+00000000100000+00000000100000                                       20200130John Doe                          
B10000000005351478379400000000000000100000000                              36546700                   0000                                            10101020200130202001300000000000220100000000000000002ILS+00000000194301+00000000194301                                       20200130John Doe                          
B10000000005451478379400000000000000200000000                                 38410               36546700                                                  20200130202001300000000000220100000000000000001ILS+00000000194301+00000000194301                                       20200130John Doe                          
B10000000005551478379400000000000000100000000                              36745700                   0000                                            10101020200130202001300000000000220100000000000000002ILS+00000526927328+00000526927328                                       20200130John Doe                          
B10000000005651478379400000000000000200000000                                 39410               36745700                                                  20200130202001300000000000220100000000000000001ILS+00000526927328+00000526927328                                       20200130John Doe                          
B10000000005751478379400000000000000100000000                              35465700                   0000                                            10101020200131202001310000000000220100000000000000002ILS+00000000015795+00000000015795                                       20200202John Doe                          
B10000000005851478379400000000000000200000000                                 40410               35465700                                                  20200130202001300000000000220100000000000000001ILS+00000000015795+00000000015795                                       20200202John Doe                          
B10000000005951478379400000000000000100000000                                 23000                   0000                                                  20200114202001140000000000220200000000000000002ILS+00000000117000+00000000117000                                       20200114John Doe                          
B10000000006051478379400000000000000100000000                                348000                  23000                                                  20200114202001140000000000220200000000000000001ILS+00000000117000+00000000117000                                       20200114John Doe                          
B10000000006151478379400000000000000100000000                              20244410                   0000                                             3000320200101202001010000000000112020000000000000002ILS+00000000044770+00000000044770                                       20191204John Doe                          
B10000000006251478379400000000000000200000000                                348000                   0000                                                  20200114202001140000000000112020000000000000002ILS+00000000117000+00000000117000                                       20200114John Doe                          
B10000000006351478379400000000000000100000000                              20246410                   0000                                             9944720200126202001260000000000112020000000000000002USD+00000000202047+00000000058500                                       20200126John Doe                          
B10000000006451478379400000000000000100000000                                352000                   0000                       Void Of Bill Payment #2024620200126202001260000000000112020000000000000001USD+00000000202047+00000000058500                                       20200126John Doe                          
B10000000006551478379400000000000000100000000                                 18000                   0000                                                  20200126202001260000000000112020000000000000002USD+00000000202047+00000000058500                                       20200126John Doe                          
B10000000006651478379400000000000000100000000                                345000                   0000                                                  20200105202001050000000000113020000000000000001USD+00000000003480+00000000001000                                       20200105John Doe                          
B10000000006751478379400000000000000200000000                                345000                   0000                                                  20200105202001050000000000120100000000000000002USD+00000000003480+00000000001000                                       20200105John Doe                          
B10000000006851478379400000000000000100000000                           18000088305                   0000                                                  20200105202001050000000000120100000000000000001USD+00000000006326+00000000001818                                       20200105John Doe                          
B10000000006951478379401800000820000200000000                                978700                   0000                                                  20200101202001010000000000623000000000000000001ILS+00000000100000+00000000100000                                       20191204John Doe                          
B10000000007051478379400000000000000200000000                             894544700                   0000                                                  20200101202001010000000000623000000000000000001ILS+00000000100000+00000000100000                                       20191204John Doe                          
B10000000007151478379400000000000000200000000                               8888700                   0000                                                  20200101202001010000000000623000000000000000001ILS+00000000100000+00000000100000                                       20191204John Doe                          
B10000000007251478379400000000000000200000000                               8888710                8888700                                                  20200101202001010000000000623000000000000000002ILS+00000000010000+00000000010000                                       20191204John Doe                          
B10000000007351478379400000000000000200000000                              36745700                   0000                                                  20200130202001300000000000625000000000000000001ILS+00000450365238+00000450365238                                       20200130John Doe                          
B10000000007451478379400000000000000200000000                              33336700                  81500                                                  20200123202001230000000000626000000000000000001ILS+00000000025641+00000000025641                                       20200126John Doe                          
B10000000007551478379400000000000000100000000                                 32410                   0000                                             3000320200101202001010000000000111200000000000000002ILS+00000000010530+00000000010530                                       20200101John Doe                          
B10000000007651478379400000000000000100000000                                 36410                   0000                                            10101020200130202001300000000000111200000000000000002ILS+00000000004043+00000000004043                                       20200130John Doe                          
B10000000007751478379400000000000000100000000                                 37410                   0000                                            10101020200130202001300000000000111200000000000000002ILS+00000000100000+00000000100000                                       20200130John Doe                          
B10000000007851478379400000000000000100000000                                 38410                   0000                                            10101020200130202001300000000000111200000000000000002ILS+00000000194301+00000000194301                                       20200130John Doe                          
B10000000007951478379400000000000000100000000                                 39410                   0000                                            10101020200130202001300000000000111200000000000000002ILS+00000526927328+00000526927328                                       20200130John Doe                          
B10000000008051478379400000000000000100000000                                 40410                   0000                                            10101020200130202001300000000000111200000000000000002ILS+00000000015795+00000000015795                                       20200202John Doe                          
B10000000008151478379400000000000000200000000                                 23000                   0000                                food&drinks (COGS)20200114202001140000000000555000000000000000001ILS+00000000100000+00000000100000                                       20200114John Doe                          
B10000000008251478379400000000000000200000000                              35465700                   0000                                                  20200131202001310000000000555000000000000000001ILS+00000000013500+00000000013500                                       20200202John Doe                          
B10000000008351478379400000000000000200000000                             577687700                   0000                                               65620200103202001030000000000661000000000000000001ILS+00000000066600+00000000066600                                       20200128John Doe                          
B10000000008451478379400000000000000200000000                              36546700                   0000                                                  20200130202001300000000000670020000000000000001ILS+00000000100670+00000000100670                                       20200130John Doe                          
B10000000008551478379400000000000000200000000                                355000                   0000                                                  20200128202001280000000006666650000000000000002ILS+00000000001000+00000000001000                                       20200128John Doe                          
B10000000008651478379400000000000000100000000                                 12410                   0000                                             9944720200126202001260000000000000010000000000000002ILS+00000000030000+00000000030000                                       20200126John Doe                          
B10000000008751478379400000000000000100000000                                 13410                   0000                                             3000320200128202001280000000000000010000000000000002ILS+00000000084240+00000000084240                                       20200128John Doe                          
B10000000008851478379400000000000000100000000                                355000                   0000                                                  20200128202001280000000000000010000000000000002ILS+00000000009000+00000000009000                                       20200128John Doe                          
B10000000008951478379400000000000000200000000                              88888700                   0000                                                  20200101202001010000000000627000000000000000001ILS+00000000010000+00000000010000                                       20200101John Doe                          
B10000000009051478379400000000000000200000000                          999999999700                   0000                                                  20200101202001010000000000627000000000000000001ILS+00000000010000+00000000010000                                       20200101John Doe                          
B10000000009151478379400000000000000200000000                                 18600                  79500                                                  20200122202001220000000000012350000000000000001USD+00000000518385+00000000150000                                       20200122John Doe                          
B10000000009251478379400000000000000300000000                                 18600                  79500                                                  20200122202001220000000000012350000000000000001USD+00000001727950+00000000500000                                       20200122John Doe                          
B10000000009351478379400000000000000400000000                                 18600                  79500                                                  20200122202001220000000000012350000000000000001USD+00000000172795+00000000050000                                       20200122John Doe                          
B10000000009451478379400000000000000500000000                                 18600                  79500                                                  20200122202001220000000000012350000000000000001USD+00000001368536+00000000396000                                       20200122John Doe                          
B10000000009551478379400000000000000200000000                                 19600                  79500                                                  20200122202001220000000000012350000000000000001USD+00000000034559+00000000010000                                       20200122John Doe                          
B10000000009651478379400000000000000200000000                                 20600                  79500                                                  20200122202001220000000000012350000000000000001USD+00000000051839+00000000015000                                       20200122John Doe                          
B10000000009751478379400000000000000300000000                                 14820                   1830                                     Cost of Sales20200122202001220000000000012350000000000000002ILS+00000000051320+00000000000000                                       20200122John Doe                          
B10000000009851478379400000000000000200000000                                 21810                   1830                                                  20200122202001220000000000012350000000000000001ILS+00000000051320+00000000051320                                       20200122John Doe                          
B10000000009951478379400000000000000100000000                                  1900                   0000                                                  20200122202001220000000000012350000000000000001ILS+00000000691282+00000000691282                                       20200122John Doe                          
B10000000010051478379400000000000000200000000                                  1900                   0000                                                  20200122202001220000000000012350000000000000002ILS+00000000172795+00000000172795                                       20200122John Doe                          
B10000000010151478379400000000000000300000000                                  1900                   0000                                                  20200122202001220000000000012350000000000000002ILS+00000000518487+00000000518487                                       20200122John Doe                          
B10000000010251478379400000000000000200000000                                  1840                   0000                                                  20200122202001220000000000012350000000000000001ILS+00000004148000+00000004148000                                       20200122John Doe                          
B10000000010351478379400000000000000100000000                                  2900                   0000                                                  20200122202001220000000000012350000000000000001ILS+00000000577999+00000000577999                                       20200122John Doe                          
B10000000010451478379400000000000000200000000                                  2900                   0000                                                  20200122202001220000000000012350000000000000002ILS+00000000064798+00000000064798                                       20200122John Doe                          
B10000000010551478379400000000000000300000000                                  2900                   0000                                                  20200122202001220000000000012350000000000000002ILS+00000000513201+00000000513201                                       20200122John Doe                          
B10000000010651478379400000000000000100000000                                  1900                   0000                                                  20200122202001220000000000012350000000000000002ILS+00000000019267+00000000019267                                       20200122John Doe                          
B10000000010751478379400000000000000200000000                                  1900                   0000                                                  20200122202001220000000000012350000000000000001ILS+00000000002160+00000000002160                                       20200122John Doe                          
B10000000010851478379400000000000000300000000                                  1900                   0000                                                  20200122202001220000000000012350000000000000001ILS+00000000017107+00000000017107                                       20200122John Doe                          
B10000000010951478379400000000000000100000000                                  3900                   0000                                                  20200122202001220000000000012350000000000000001ILS+00000000191371+00000000191371                                       20200122John Doe                          
B10000000011051478379400000000000000200000000                                  3900                   0000                                                  20200122202001220000000000012350000000000000002ILS+00000000096333+00000000096333                                       20200122John Doe                          
B10000000011151478379400000000000000300000000                                  3900                   0000                                                  20200122202001220000000000012350000000000000002ILS+00000000008640+00000000008640                                       20200122John Doe                          
B10000000011251478379400000000000000400000000                                  3900                   0000                                                  20200122202001220000000000012350000000000000002ILS+00000000086398+00000000086398                                       20200122John Doe                          
B10000000011351478379400000000000000400000000                                 15200            18000043100                                     Cost of Sales20200122202001220000000000012350000000000000002ILS+00000000076548+00000000000000                                       20200122John Doe                          
B10000000011451478379400000000000000700000000                                 15200            18000043100                                     Cost of Sales20200122202001220000000000012350000000000000002ILS+00000000138256+00000000000000                                       20200122John Doe                          
B10000000011551478379400000000000000500000000                                 22210                   2000                                     Cost of Sales20200122202001220000000000012350000000000000001ILS+00000000007655+00000000000000                                       20200122John Doe                          
B10000000011651478379400000000000000800000000                                 22210                   2000                                     Cost of Sales20200122202001220000000000012350000000000000001ILS+00000000013826+00000000000000                                       20200122John Doe                          
B10000000011751478379400000000000000200000000                                  2830                   0000                                                  20200122202001220000000000012350000000000000001ILS+00000000015555+00000000015555                                       20200122John Doe                          
B10000000011851478379400000000000000300000000                                  2830                   0000                                                  20200122202001220000000000012350000000000000002ILS+00000000015555+00000000015555                                       20200122John Doe                          
B10000000011951478379400000000000000200000000                                 16610                   3000                                                  20200122202001220000000000012350000000000000002USD+00000000003456+00000000001000                                       20200122John Doe                          
B10000000012051478379400000000000000200000000                             123056700                   0000                                                  20200130202001300000000000012350000000000000001ILS+00000000003456+00000000003456                                       20200130John Doe                          
B10000000012151478379400000000000000200000000                              30546700                   0000                                                  20200130202001300000000000012350000000000000001USD+00000000345598+00000000100156                                       20200130John Doe                          
B10000000012251478379400000000000000100000000                                  1840                   0000                                                  20200122202001220000000000000000000000000000002ILS+00000004148000+00000004148000                                       20200122John Doe                          
B10000000012351478379400000000000000300000000                                 15200            18000043100                                     Cost of Sales20200122202001220000000000000000000000000000001ILS+00000000076548+00000000000000                                       20200122John Doe                          
B10000000012451478379400000000000000600000000                                 15200            18000043100                                     Cost of Sales20200122202001220000000000000000000000000000001ILS+00000000138256+00000000000000                                       20200122John Doe                          
B10000000012551478379400000000000000400000000                                 22210                   2000                                     Cost of Sales20200122202001220000000000000000000000000000002ILS+00000000007655+00000000000000                                       20200122John Doe                          
B10000000012651478379400000000000000700000000                                 22210                   2000                                     Cost of Sales20200122202001220000000000000000000000000000002ILS+00000000013826+00000000000000                                       20200122John Doe                          
B10000000012751478379400000000000000200000000                                 14820                   1830                                     Cost of Sales20200122202001220000000000001320000000000000001ILS+00000000051320+00000000000000                                       20200122John Doe                          
B10000000012851478379400000000000000300000000                                 21810                   1830                                                  20200122202001220000000000001320000000000000002ILS+00000000051320+00000000051320                                       20200122John Doe                          
B10000000012951478379401800000820000300000000                                978700                   0000                                               VAT20200101202001010000000000000000000000000000001ILS+00000000017000+00000000017000                                       20191204John Doe                          
B10000000013051478379400000000000000300000000                             894544700                   0000                                               VAT20200101202001010000000000000000000000000000001ILS+00000000017000+00000000017000                                       20191204John Doe                          
B10000000013151478379400000000000000300000000                               8888700                   0000                                               VAT20200101202001010000000000000000000000000000001ILS+00000000017000+00000000017000                                       20191204John Doe                          
B10000000013251478379400000000000000300000000                               8888710                8888700                                               VAT20200101202001010000000000000000000000000000002ILS+00000000001700+00000000001700                                       20191204John Doe                          
B10000000013351478379400000000000000100000000                                  1410                   0000                                             9944720200126202001260000000000000400000000000000002USD+00000000202047+00000000058500                                       20200126John Doe                          
B10000000013451478379400000000000000200000000                                 18000                   0000                                                  20200126202001260000000000000400000000000000001USD+00000000202047+00000000058500                                       20200126John Doe                          
B10000000013551478379400000000000000100000000                                353000                   0000                           Void Of Bill Payment #120200126202001260000000000000400000000000000001USD+00000000202047+00000000058500                                       20200126John Doe                          
B110000000136514783794000000000033000                  33000 Equity : Retained Earnings         Equity                        Equity                                                                                                                                                 +00000000040171+00000000000000+000000000000009980000000000       -00000000040171                   
B110000000137514783794000000000040000                                       40000 Sales         Income                        Income                                                                                                                                                 -00000002224500+00000000000000+000000000054070000000000000       +00000002224500                   
B110000000138514783794000000000060000                                    60000 Expenses        Expense                       Expense                                                                                                                                                 +00000005082415+00000000000000+000000000000000000000000000       +00000004122519                   
B110000000139514783794000000000022532     22532 Authorities Liability : VAT on Sales IL    OthCurrLiab                   OthCurrLiab                                                                                                                                                 -00000003778040+00000000000000+000000000009199350000000000       +00000003270871                   
B11000000014051478379400000000001253212532 Authority assets : VAT on Other Purchases IL   OthCurrAsset                  OthCurrAsset                                                                                                                                                 +00000000823749+00000000000000+000000000000007440000000000       +00000000821554                   
B110000000141514783794000000000022531    22531 Authorities Liability : VAT Liability IL    OthCurrLiab                   OthCurrLiab                                                                                                                                                 +00000000055433+00000000000000+000000000000009350000000000       -00000000055433                   
B11000000014251478379400000000002223022230 Other Current Liabilities : Accrued Purchase    OthCurrLiab                   OthCurrLiab                                                                                                                                                 -00000001120000+00000000000000+000000038740640000000000000       +00000001120000                   
B110000000143514783794000000000012320        12320 Other Current Assets : Advances Paid   OthCurrAsset                  OthCurrAsset                                                                                                                                                 +00000000130470+00000000000000+000000000854707470000000000       +00000000130470                   
B11000000014451478379400000000001233012330 Other Current Assets : Purchases Returned No   OthCurrAsset                  OthCurrAsset                                                                                                                                                 +00000000000000+00000000003456+000000000000007410000000000       +00000000000000                   
B110000000145514783794000000000011999                           11999 Undeposited Funds   OthCurrAsset                  OthCurrAsset                                                                                                                                                 +00000004611830+00000000065399+000000000000007110000000000       +00000004413895                   
B11000000014651478379400000000002255122551 Authorities Liability : Withholding tax for     OthCurrLiab                   OthCurrLiab                                                                                                                                                 -00000001480600+00000000000000+000000000571089350000000000       +00000001352276                   
B11000000014751478379400000000001253312533 Authority assets : VAT on Fixed asset Purcha   OthCurrAsset                  OthCurrAsset                                                                                                                                                 +00000006303614+00000076688038+000000000145307440000000000       +00000005974370                   
B110000000148514783794000000000012504          12504 Authority assets : excess expenses   OthCurrAsset                  OthCurrAsset                                                                                                                                                 +00000000134298+00000000000000+000000000000007430000000000       +00000000000000                   
B110000000149514783794000000000012507            12507 Authority assets : WH paid by AR   OthCurrAsset                  OthCurrAsset                                                                                                                                                 +00000000100000+00000000000000+000000000000007430000000000       +00000000100000                   
B110000000150514783794000000000022010                  22010 Accounts Payable : Vendors        AcctPay                       AcctPay                                                                                                                                                 -00000031213499+00000527993909+000005284322340000000000000       +00000029439138                   
B110000000151514783794000000000022020                22020 Accounts Payable : Employees        AcctPay                       AcctPay                                                                                                                                                 -00000000351000+00000000117000+000000001170009310000000000       +00000000351000                   
B110000000152514783794000000000041000                     41000 Sales : sales (service)         Income                        Income                                                                                                                                                 -00000017855989+00000000000000+000000000000001030000000000       +00000011639387                   
B110000000153514783794000000000011202                  11202 Banks : Leumi 897125 - NIS           Bank                          Bank                                                                                                                                                 +00000203935764+00000000202047+000000005658647110000000000       +00000040331614                   
B110000000154514783794000000000011302                  11302 Banks : Leumi 897125 - USD           Bank                          Bank                                                                                                                                                 -00000003880765+00000000003480+000000000000007120000000000       -00000001419600                   
B110000000155514783794000000000011402                  11402 Banks : Leumi 897125 - EUR           Bank                          Bank                                                                                                                                                 +00000000022687+00000000000000+000000000000007120000000000       +00000000005850                   
B110000000156514783794000000000012010             12010 Accounts Receivable : Customers        AcctRec                       AcctRec                                                                                                                                                 +00000010802482+00000000006326+000000000034807310000000000       +00000007019245                   
B110000000157514783794000000000062100 62100 Expenses : Rent and asset management : rent        Expense                       Expense                                                                                                                                                 +00000002291250+00000000000000+000000000000003570000000000       +00000002033100                   
B11000000015851478379400000000006220062200 Expenses : Rent and asset management : Munic        Expense                       Expense                                                                                                                                                 +00000000655995+00000000000000+000000000000003575000000000       +00000000630000                   
B11000000015951478379400000000006230062300 Expenses : Rent and asset management : Elect        Expense                       Expense                                                                                                                                                 +00000000380000+00000000300000+000000000100003590000000000       +00000000380000                   
B11000000016051478379400000000006240062400 Expenses : Rent and asset management : water        Expense                       Expense                                                                                                                                                 +00000000398880+00000000000000+000000000000003590000000000       +00000000398880                   
B11000000016151478379400000000006250062500 Expenses : Rent and asset management : Clean        Expense                       Expense                                                                                                                                                 +00000004340431+00000450365238+000000000000003550000000000       +00000001182411                   
B11000000016251478379400000000006260062600 Expenses : Rent and asset management : maint        Expense                       Expense                                                                                                                                                 +00000000010000+00000000025641+000000000000003550000000000       +00000000010000                   
B110000000163514783794000000000012090           12090 Accounts Receivable : Owners (AR)        AcctRec                       AcctRec                                                                                                                                                 +00000005690460+00000000000000+000000000000007450000000000       +00000005805530                   
B110000000164514783794000000000022090              22090 Accounts Payable : Owners (AP)        AcctPay                       AcctPay                                                                                                                                                 +00000000000000+00000000000000+000000000000009435000000000       +00000000000000                   
B11000000016551478379400000000002510125101 Long Term Liability : Long term loans : Owne   LongTermLiab                  LongTermLiab                                                                                                                                                 -00000367632191+00000000000000+000000000000009151000000000       +00000100000000                   
B110000000166514783794000000000089999          89999 Other Expense : Rounding Gain/Loss     OthExpense                    OthExpense                                                                                                                                                 +00000000459541+00000000000000+000000000000003690000000000       +00000000459541                   
B110000000167514783794000000000070100                70100 Funding Expenses : Bank fees        Expense                       Expense                                                                                                                                                 +00000000001090+00000000000000+000000000000005010000000000       +00000000001090                   
B110000000168514783794000000000049999            49999 Sales : Transition sales account         Income                        Income                                                                                                                                                 -00000003000000+00000000000000+000000000000001030000000000       +00000003000000                   
B11000000016951478379400000000006590065900 Expenses : LEGAL & ACCOUNTING : Management C        Expense                       Expense                                                                                                                                                 +00000002150000+00000000000000+000000000000003640000000000       +00000002150000                   
B110000000170514783794000000000021001                     21001 Credit Card : Visa 2002       CredCard                      CredCard                                                                                                                                                 -00000000573684+00000000000000+000000000000009120000000000       +00000000573684                   
B110000000171514783794000000000011120                         11120 Banks : MASAV Leumi           Bank                          Bank                                                                                                                                                 -00000014908728+00000000000000+000005272519977110000000000       -00000014908194                   
B110000000172514783794000000000043000                            43000 Sales : Discount         Income                        Income                                                                                                                                                 +00000000533240+00000000000000+000000000000001010000000000       -00000000228212                   
B110000000173514783794000000000000000                                 Customer Deposits    OthCurrLiab                   OthCurrLiab                                                                                                                                                 -00000000482600+00000000000000+000000000000000000000000000       +00000000410000                   
B110000000174514783794000000000000000                                Realized Gain/Loss     OthExpense                    OthExpense                                                                                                                                                 -00000000142836+00000000000000+000000000000000000000000000       +00000000000000                   
B11000000017551478379400000000005520055200 Cost of Goods : Travel expenses : Car rental           COGS                          COGS                                                                                                                                                 +00000000150000+00000000000000+000000000000001390000000000       +00000000150000                   
B11000000017651478379400000000005530055300 Cost of Goods : Travel expenses : Other tran           COGS                          COGS                                                                                                                                                 +00000000021368+00000000000000+000000000000001390000000000       +00000000021368                   
B110000000177514783794000000000055400    55400 Cost of Goods : Travel expenses : Hotels           COGS                          COGS                                                                                                                                                 +00000000600000+00000000000000+000000000000001390000000000       +00000000600000                   
B11000000017851478379400000000005550055500 Cost of Goods : Travel expenses : Foods&drin           COGS                          COGS                                                                                                                                                 +00000000742400+00000000113500+000000000000001390000000000       +00000000742400                   
B11000000017951478379400000000006610066100 Expenses : Office - general expense : refres        Expense                       Expense                                                                                                                                                 +00000042259851+00000000066600+000000000000003625000000000       +00000013177649                   
B110000000180514783794000000000011900             11900 Banks : Deferred checks (Given)           Bank                          Bank                                                                                                                                                 -00000000514800+00000000000000+000000000000007110000000000       -00000000514800                   
B11000000018151478379400000000006650066500 Expenses : Office - general expense : Mainte        Expense                       Expense                                                                                                                                                 +00000008521666+00000000000000+000000000000003550000000000       +00000008515200                   
B11000000018251478379400000000001410114101 Fixed assets : Fixed assets cost : Computers     FixedAsset                    FixedAsset                                                                                                                                                 +00000000308100+00000000000000+000000000000008050000000000       +00000000050000                   
B11000000018351478379400000000001410314103 Fixed assets : Fixed assets cost : Furnishin     FixedAsset                    FixedAsset                                                                                                                                                 +00000001460000+00000000000000+000000000000008060000000000       +00000001460000                   
B11000000018451478379400000000006700167001 Expenses : Depreciation Expenses : Computers        Expense                       Expense                                                                                                                                                 +00000001196581+00000000000000+000000000000000000000000000       +00000001196581                   
B11000000018551478379400000000006700267002 Expenses : Depreciation Expenses : Leasehold        Expense                       Expense                                                                                                                                                 +00000000010000+00000000100670+000000000000000000000000000       +00000000010000                   
B11000000018651478379400000000006700367003 Expenses : Depreciation Expenses : Furnishin        Expense                       Expense                                                                                                                                                 +00000003911788+00000000000000+000000000000000000000000000       +00000001611965                   
B110000000187514783794000000000000000                            Sales Taxes Payable NY    OthCurrLiab                   OthCurrLiab                                                                                                                                                 -00000000006436+00000000000000+000000000000000000000000000       +00000000001760                   
B110000000188514783794000000000040001                     40001 Sales : Avatax tax code         Income                        Income                                                                                                                                                 -00000000129000+00000000000000+000000000000000000000000000       +00000000129000                   
B110000000189514783794000000000666665                             666665 WH TAX ACCOUNT    OthCurrLiab                   OthCurrLiab                                                                                                                                                 +00000000030000+00000000000000+000000000010000000000000000       -00000000030000                   
B110000000190514783794000000000011305    11305 Banks : HaPoalim 963852 - USD : HaPoalim           Bank                          Bank                                                                                                                                                 +00000000011866+00000000000000+000000000000000000000000000       +00000000003283                   
B110000000191514783794000000000000010                       10 transition account - ILS           Bank                          Bank                                                                                                                                                 +00000000602033+00000000000000+000000000000000000000000000       +00000001332595                   
B110000000192514783794000000000000001                                 1 CITI BANK - ILS           Bank                          Bank                                                                                                                                                 -00000001240440+00000000000000+000000001232400000000000000       -00000000896089                   
B110000000193514783794000000000000002                                 2 CITI BANK - USD           Bank                          Bank                                                                                                                                                 +00000000005651+00000000000000+000000000000000000000000000       +00000000000496                   
B110000000194514783794000000000000003                                3 CITI BANK - EURO           Bank                          Bank                                                                                                                                                 -00000000395929+00000000000000+000000000000000000000000000       -00000000098825                   
B110000000195514783794000000000012535                           12535 Deferred Expenses       OthAsset                      OthAsset                                                                                                                                                 +00000005141400+00000000000000+000000000000000000000000000       +00000005040000                   
B110000000196514783794000000000012531      12531 transition VAT account on purchases IL   OthCurrAsset                  OthCurrAsset                                                                                                                                                 +00000000000000+00000000000000+000000000000000000000000000       +00000000000000                   
B110000000197514783794000000000012310                           12310 vendor prepayment   OthCurrAsset                  OthCurrAsset                                                                                                                                                 +00000119460630+00000000000000+000000000000000000000000000       +00000043569800                   
B110000000198514783794000000000022510                                       22510 Loans    OthCurrLiab                   OthCurrLiab                                                                                                                                                 -00000003000000+00000000000000+000000000000000000000000000       +00000003000000                   
B110000000199514783794000000000062700                                  62700 IT expense        Expense                       Expense                                                                                                                                                 +00000008400000+00000000020000+000000000000000000000000000       +00000008400000                   
B11000000020051478379400000000006700467004 Expenses : Depreciation Expenses : Leasehold        Expense                       Expense                                                                                                                                                 +00000000020000+00000000000000+000000000000000000000000000       +00000000020000                   
B110000000201514783794000000000000030                30 transition account - EURO - LTD           Bank                          Bank                                                                                                                                                 +00000000000000+00000000000000+000000000000000000000000000       +00000000000000                   
B110000000202514783794000000000022290                                     22290 Shaklap    OthCurrLiab                   OthCurrLiab                                                                                                                                                 +00000000000000+00000000000000+000000000000000000000000000       +00000000000000                   
B110000000203514783794000000000022008         22008 Accounts Payable : Deffered cheques        AcctPay                       AcctPay                                                                                                                                                 -00000000009700+00000000000000+000000000000000000000000000       +00000000009700                   
B110000000204514783794000000000001235                              1235 Inventory Asset   OthCurrAsset                  OthCurrAsset                                                                                                                                                 +00000012120000+00000009939393+000000017650540000000000000       +00000012120000                   
B110000000205514783794000000000000000                                Cost of Goods Sold           COGS                          COGS                                                                                                                                                 +00000000000000+00000000214804+000000041694810000000000000       +00000000000000                   
B110000000206514783794000000000000132                          132 Inventory In Transit   OthCurrAsset                  OthCurrAsset                                                                                                                                                 +00000000000000+00000000051320+000000000513200000000000000       +00000000000000                   
B110000000207514783794000000000000000                              Proforma VAT Account   OthCurrAsset                  OthCurrAsset                                                                                                                                                 +00000000013600+00000000051000+000000000017000000000000000       +00000000013600                   
B110000000208514783794000000000000040                 40 transition account - USD - LTD           Bank                          Bank                                                                                                                                                 +00000000000000+00000000404094+000000002020470000000000000       +00000000000000                   
B110000000209514783794000000000012000                         12000 Accounts ReceivableAccounts Receiv           Accounts Receivable                                                                                                                                                 +00000000000000+00000000000000+000000000000000000000000000       +00000000000000                   
B110000000210514783794000000000012300                        12300 Other Current AssetsOther Current A           Other Current Asset                                                                                                                                                 +00000000000000+00000000000000+000000000000000000000000000       +00000000000000                   
B110000000211514783794000000000012340                                   12340 inventoryOther Current A           Other Current Asset                                                                                                                                                 +00000000000000+00000000000000+000000000000000000000000000       +00000000000000                   
B110000000212514783794000000000012500                            12500 Authority assetsOther Current A           Other Current Asset                                                                                                                                                 +00000000000000+00000000000000+000000000000000000000000000       +00000000000000                   
B110000000213514783794000000000012501      12501 Authority assets : Income tax advancesOther Current A           Other Current Asset                                                                                                                                                 +00000000000000+00000000000000+000000000000007430000000000       +00000000000000                   
B110000000214514783794000000000012534                   12534 temporary holding accountOther Current A           Other Current Asset                                                                                                                                                 +00000000000000+00000000000000+000000000000000000000000000       +00000000000000                   
B110000000215514783794000000000014000                                14000 Fixed assets    Fixed Asset                   Fixed Asset                                                                                                                                                 +00000000000000+00000000000000+000000000000000000000000000       +00000000000000                   
B110000000216514783794000000000014100            14100 Fixed assets : Fixed assets cost    Fixed Asset                   Fixed Asset                                                                                                                                                 +00000000000000+00000000000000+000000000000000000000000000       +00000000000000                   
B11000000021751478379400000000001410214102 Fixed assets : Fixed assets cost : Leasehold    Fixed Asset                   Fixed Asset                                                                                                                                                 +00000000000000+00000000000000+000000000000008020000000000       +00000000000000                   
B11000000021851478379400000000001410414104 Fixed assets : Fixed assets cost : Leasehold    Fixed Asset                   Fixed Asset                                                                                                                                                 +00000000000000+00000000000000+000000000000000000000000000       +00000000000000                   
B11000000021951478379400000000001460014600 Fixed assets : Fixed assets - Depreciation a    Fixed Asset                   Fixed Asset                                                                                                                                                 +00000000000000+00000000000000+000000000000000000000000000       +00000000000000                   
B11000000022051478379400000000001460114601 Fixed assets : Fixed assets - Depreciation a    Fixed Asset                   Fixed Asset                                                                                                                                                 +00000000000000+00000000000000+000000000000008150000000000       +00000000000000                   
B11000000022151478379400000000001460214602 Fixed assets : Fixed assets - Depreciation a    Fixed Asset                   Fixed Asset                                                                                                                                                 +00000000000000+00000000000000+000000000000008120000000000       +00000000000000                   
B11000000022251478379400000000001460314603 Fixed assets : Fixed assets - Depreciation a    Fixed Asset                   Fixed Asset                                                                                                                                                 +00000000000000+00000000000000+000000000000008160000000000       +00000000000000                   
B11000000022351478379400000000001460414604 Fixed assets : Fixed assets - Depreciation a    Fixed Asset                   Fixed Asset                                                                                                                                                 +00000000000000+00000000000000+000000000000000000000000000       +00000000000000                   
B110000000224514783794000000000022000                            22000 Accounts PayableAccounts Payabl              Accounts Payable                                                                                                                                                 +00000000000000+00000000000000+000000000000000000000000000       +00000000000000                   
B110000000225514783794000000000022210                            22210 deferred revenueAccounts Receiv           Accounts Receivable                                                                                                                                                 +00000000000000+00000000000000+000000000000000000000000000       +00000000000000                   
B110000000226514783794000000000022220 22220 Other Current Liabilities : Refunds PayableOther Current L       Other Current Liability                                                                                                                                                 +00000000000000+00000000000000+000000000000009370000000000       +00000000000000                   
B11000000022751478379400000000002224022240 Other Current Liabilities : Commissions PayaOther Current L       Other Current Liability                                                                                                                                                 +00000000000000+00000000000000+000000000000000000000000000       +00000000000000                   
B110000000228514783794000000000022250                            22250 Deferred RevenueOther Current L       Other Current Liability                                                                                                                                                 +00000000000000+00000000000000+000000000000000000000000000       +00000000000000                   
B11000000022951478379400000000002227022270 Other Current Liabilities : Short term loansOther Current L       Other Current Liability                                                                                                                                                 +00000000000000+00000000000000+000000000000000000000000000       +00000000000000                   
B110000000230514783794000000000022500                       22500 Authorities LiabilityOther Current L       Other Current Liability                                                                                                                                                 +00000000000000+00000000000000+000000000000000000000000000       +00000000000000                   
B11000000023151478379400000000002255222552 Authorities Liability : Withholding tax for Other Current L       Other Current Liability                                                                                                                                                 +00000000000000+00000000000000+000000000000009350000000000       +00000000000000                   
B110000000232514783794000000000025000                         25000 Long Term LiabilityLong Term Liabi           Long Term Liability                                                                                                                                                 +00000000000000+00000000000000+000000000000000000000000000       +00000000000000                   
B110000000233514783794000000000030000                                      30000 Equity         Equity                        Equity                                                                                                                                                 +00000000000000+00000000000000+000000000000000000000000000       +00000000000000                   
B110000000234514783794000000000031000                       31000 Equity : Common Stock         Equity                        Equity                                                                                                                                                 +00000000000000+00000000000000+000000000000009910000000000       +00000000000000                   
B110000000235514783794000000000032000                    32000 Equity : Opening Balance         Equity                        Equity                                                                                                                                                 +00000000000000+00000000000000+000000000000009980000000000       +00000000000000                   
B110000000236514783794000000000039999           39999 Cumulative Translation Adjustment         Equity                        Equity                                                                                                                                                 +00000000000000+00000000000000+000000000000009980000000000       +00000000000000                   
B110000000237514783794000000000045000               45000 Sales : Shipping and Handling         Income                        Income                                                                                                                                                 +00000000000000+00000000000000+000000000000001030000000000       +00000000000000                   
B110000000238514783794000000000050000                               50000 Cost of GoodsCost of Goods S            Cost of Goods Sold                                                                                                                                                 +00000000000000+00000000000000+000000000000000000000000000       +00000000000000                   
B110000000239514783794000000000055000             55000 Cost of Goods : Travel expensesCost of Goods S            Cost of Goods Sold                                                                                                                                                 +00000000000000+00000000000000+000000000000000000000000000       +00000000000000                   
B110000000240514783794000000000055100   55100 Cost of Goods : Travel expenses : FlightsCost of Goods S            Cost of Goods Sold                                                                                                                                                 +00000000000000+00000000000000+000000000000001390000000000       +00000000000000                   
B110000000241514783794000000000061000                          61000 Expenses : Payroll        Expense                       Expense                                                                                                                                                 +00000000000000+00000000000000+000000000000000000000000000       +00000000000000                   
B110000000242514783794000000000062000        62000 Expenses : Rent and asset management        Expense                       Expense                                                                                                                                                 +00000000000000+00000000000000+000000000000000000000000000       +00000000000000                   
B110000000243514783794000000000063000                    63000 Expenses : Communication        Expense                       Expense                                                                                                                                                 +00000000000000+00000000000000+000000000000000000000000000       +00000000000000                   
B110000000244514783794000000000065000               65000 Expenses : LEGAL & ACCOUNTING        Expense                       Expense                                                                                                                                                 +00000000000000+00000000000000+000000000000000000000000000       +00000000000000                   
B110000000245514783794000000000067000            67000 Expenses : Depreciation Expenses        Expense                       Expense                                                                                                                                                 +00000000000000+00000000000000+000000000000000000000000000       +00000000000000                   
B110000000246514783794000000000067100                       67100 Fixed asset Write off        Expense                       Expense                                                                                                                                                 +00000000000000+00000000000000+000000000000000000000000000       +00000000000000                   
B110000000247514783794000000000067101                   67101 fixed asset Disposal cost        Expense                       Expense                                                                                                                                                 +00000000000000+00000000000000+000000000000000000000000000       +00000000000000                   
B110000000248514783794000000000068000                                  68000 petty cash        Expense                       Expense                                                                                                                                                 +00000000000000+00000000000000+000000000000000000000000000       +00000000000000                   
B110000000249514783794000000000070000                            70000 Funding Expenses        Expense                       Expense                                                                                                                                                 +00000000000000+00000000000000+000000000000000000000000000       +00000000000000                   
B110000000250514783794000000000080000                                80000 Other Income   Other Income                  Other Income                                                                                                                                                 +00000000000000+00000000000000+000000000000000000000000000       +00000000000000                   
B110000000251514783794000000000085000                               85000 Other Expense  Other Expense                 Other Expense                                                                                                                                                 +00000000000000+00000000000000+000000000000000000000000000       +00000000000000                   
B110000000252514783794000000000000000                          Accumulated DepreciationDeferred Expens              Deferred Expense                                                                                                                                                 +00000000000000+00000000000000+000000000000000000000000000       +00000000000000                   
B110000000253514783794000000000000000     Cumulative Translation Adjustment-Elimination         Equity                        Equity                                                                                                                                                 +00000000000000+00000000000000+000000000000000000000000000       +00000000000000                   
B110000000254514783794000000000000000                                  Deferred ExpenseDeferred Expens              Deferred Expense                                                                                                                                                 +00000000000000+00000000000000+000000000000000000000000000       +00000000000000                   
B110000000255514783794000000000000000                              Unrealized Gain/Loss  Other Expense                 Other Expense                                                                                                                                                 +00000000000000+00000000000000+000000000000000000000000000       +00000000000000                   
B110000000256514783794000000000000000                     Unrealized Matching Gain/Loss  Other Expense                 Other Expense                                                                                                                                                 +00000000000000+00000000000000+000000000000000000000000000       +00000000000000                   
C100000000257514783794700                1111201912021336                                       Yaron Cohen                                         Ha-Shmona         3                        Ashdod                                IsraelIL               03518438120191202+00000000000000   +00000000100000+00000000000000+00000000100000+00000000017000+00000000117000+00000000000             10           20191202       John Doe 0018116             
C100000000258514783794700                 978201912041450                                       Yaron Cohen                                         Ha-Shmona         3                        Ashdod                                IsraelIL               03518438120200101+00000000000000   +00000000100000+00000000000000+00000000100000+00000000017000+00000000117000+00000000000             10           20200101       John Doe 0018331             
C100000000259514783794700              894544201912041506                                       Yaron Cohen                                         Ha-Shmona         3                        Ashdod                                IsraelIL               03518438120200101+00000000000000   +00000000100000+00000000000000+00000000100000+00000000017000+00000000117000+00000000000             10           20200101       John Doe 0018332             
C100000000260514783794700                8888201912041523                                       Yaron Cohen                                         Ha-Shmona         3                        Ashdod                                IsraelIL               03518438120200101+00000000000000   +00000000100000+00000000000000+00000000100000+00000000017000+00000000117000+00000000000             10           20200101       John Doe 0018435             
C100000000261514783794710                8888201912041524                                       Yaron Cohen                                         Ha-Shmona         3                        Ashdod                                IsraelIL               03518438120200101+00000000000000   +00000000010000+00000000000000+00000000010000+00000000001700+00000000011700+00000000000             10           20200101       John Doe 0018436             
C100000000262514783794410               20244201912041525                                       Yaron Cohen                                         Ha-Shmona         3                        Ashdod                                IsraelIL               03518438120200101+00000000000000   +00000000044770+00000000000000+00000000044770+00000000000000+00000000044770+00000000000             10           20200101       John Doe 0018538             
C100000000263514783794700               88888202001011520                                       Yaron Cohen                                         Ha-Shmona         3                        Ashdod                                IsraelIL               03518438120200101+00000000000000   +00000000010000+00000000000000+00000000010000+00000000001700+00000000011700+00000000000             10           20200101       John Doe 0022300             
C100000000264514783794410                  32202001011522                                       Yaron Cohen                                         Ha-Shmona         3                        Ashdod                                IsraelIL               03518438120200101+00000000000000   +00000000010530+00000000000000+00000000010530+00000000000000+00000000010530+00000000000             10           20200101       John Doe 0022301             
C100000000265514783794700           999999999202001011528                                       Yaron Cohen                                         Ha-Shmona         3                        Ashdod                                IsraelIL               03518438120200101+00000000000000   +00000000010000+00000000000000+00000000010000+00000000001700+00000000011700+00000000000             10           20200101       John Doe 0022501             
C100000000266514783794410                  33202001011528                                       Yaron Cohen                                         Ha-Shmona         3                        Ashdod                                IsraelIL               03518438120200101+00000000000000   +00000000010530+00000000000000+00000000010530+00000000000000+00000000010530+00000000000             10           20200101       John Doe 0022502             
C100000000267514783794305            18000088202001051002                                         shupersal                                                                                                                                                 52002273220200105+00000000001818USD+00000000005407+00000000000000+00000000005407+00000000000919+00000000006326+00000000000            113           20200105       John Doe 0022703             
C100000000268514783794500                  79202001221029                                          vendor 1                                                                                                                          IsraelIL               52003934820200122+00000000000000   +00000003874064+00000000000000+00000003874064+00000000658591+00000004532655+00000000000             90           20200122       John Doe 0023017             
C100000000269514783794600                  18202001221040                                          vendor 1                                                                                                                          IsraelIL               52003934820200122+00000000000000   +00000003787666+00000000000000+00000003787666+00000000000000+00000003787666+00000000000             90           20200122       John Doe 0023018             
C100000000270514783794600                  19202001221042                                          vendor 1                                                                                                                          IsraelIL               52003934820200122+00000000000000   +00000000034559+00000000000000+00000000034559+00000000000000+00000000034559+00000000000             90           20200122       John Doe 0023019             
C100000000271514783794600                  20202001221044                                          vendor 1                                                                                                                          IsraelIL               52003934820200122+00000000000000   +00000000051839+00000000000000+00000000051839+00000000000000+00000000051839+00000000000             90           20200122       John Doe 0023020             
C100000000272514783794830                   1202001221046                                         undefined                                                                                                                                                 00000000020200122+00000000000000   +00000000000000+00000000000000+00000000000000+00000000000000+00000000000000+00000000000              0           20200122       John Doe 0023021             
C100000000273514783794910                   1202001221049                                         undefined                                                                                                                                                 00000000020200122+00000000000000   +00000000691282+00000000000000+00000000691282+00000000000000+00000000691282+00000000000              0           20200122       John Doe 0023024             
C100000000274514783794900                   1202001221049                                         undefined                                                                                                                                                 00000000020200122+00000000000000   +00000000691282+00000000000000+00000000691282+00000000000000+00000000691282+00000000000              0           20200122       John Doe 0023024             
C100000000275514783794840                   1202001221054                                         undefined                                                                                                                                                 00000000020200122+00000000000000   +00000004148000+00000000000000+00000004148000+00000000000000+00000004148000+00000000000              0           20200122       John Doe 0023026             
C100000000276514783794910                   2202001221112                                         undefined                                                                                                                                                 00000000020200122+00000000000000   +00000000577999+00000000000000+00000000577999+00000000000000+00000000577999+00000000000              0           20200122       John Doe 0023027             
C100000000277514783794900                   2202001221112                                         undefined                                                                                                                                                 00000000020200122+00000000000000   +00000000577999+00000000000000+00000000577999+00000000000000+00000000577999+00000000000              0           20200122       John Doe 0023027             
C100000000278514783794910                   1202001221118                                         undefined                                                                                                                                                 00000000020200122+00000000000000   +00000000019267+00000000000000+00000000019267+00000000000000+00000000019267+00000000000              0           20200122       John Doe 0023028             
C100000000279514783794900                   1202001221118                                         undefined                                                                                                                                                 00000000020200122+00000000000000   +00000000019267+00000000000000+00000000019267+00000000000000+00000000019267+00000000000              0           20200122       John Doe 0023028             
C100000000280514783794910                   3202001221128                                         undefined                                                                                                                                                 00000000020200122+00000000000000   +00000000191371+00000000000000+00000000191371+00000000000000+00000000191371+00000000000              0           20200122       John Doe 0023029             
C100000000281514783794900                   3202001221128                                         undefined                                                                                                                                                 00000000020200122+00000000000000   +00000000191371+00000000000000+00000000191371+00000000000000+00000000191371+00000000000              0           20200122       John Doe 0023029             
C100000000282514783794100            18000043202001221131                                         shupersal                                                                                                                                                 52002273220200122+00000000000000   +00000000100000+00000000000000+00000000100000+00000000017000+00000000117000+00000000000            113           20200122       John Doe 0023030             
